{
  "_format": "hh-sol-artifact-1",
  "contractName": "NftOnchain",
  "sourceName": "contracts/NftOnchain.sol",
  "abi": [
    {
      "inputs": [],
      "stateMutability": "nonpayable",
      "type": "constructor"
    },
    {
      "inputs": [
        {
          "internalType": "address",
          "name": "sender",
          "type": "address"
        },
        {
          "internalType": "uint256",
          "name": "tokenId",
          "type": "uint256"
        },
        {
          "internalType": "address",
          "name": "owner",
          "type": "address"
        }
      ],
      "name": "ERC721IncorrectOwner",
      "type": "error"
    },
    {
      "inputs": [
        {
          "internalType": "address",
          "name": "operator",
          "type": "address"
        },
        {
          "internalType": "uint256",
          "name": "tokenId",
          "type": "uint256"
        }
      ],
      "name": "ERC721InsufficientApproval",
      "type": "error"
    },
    {
      "inputs": [
        {
          "internalType": "address",
          "name": "approver",
          "type": "address"
        }
      ],
      "name": "ERC721InvalidApprover",
      "type": "error"
    },
    {
      "inputs": [
        {
          "internalType": "address",
          "name": "operator",
          "type": "address"
        }
      ],
      "name": "ERC721InvalidOperator",
      "type": "error"
    },
    {
      "inputs": [
        {
          "internalType": "address",
          "name": "owner",
          "type": "address"
        }
      ],
      "name": "ERC721InvalidOwner",
      "type": "error"
    },
    {
      "inputs": [
        {
          "internalType": "address",
          "name": "receiver",
          "type": "address"
        }
      ],
      "name": "ERC721InvalidReceiver",
      "type": "error"
    },
    {
      "inputs": [
        {
          "internalType": "address",
          "name": "sender",
          "type": "address"
        }
      ],
      "name": "ERC721InvalidSender",
      "type": "error"
    },
    {
      "inputs": [
        {
          "internalType": "uint256",
          "name": "tokenId",
          "type": "uint256"
        }
      ],
      "name": "ERC721NonexistentToken",
      "type": "error"
    },
    {
      "anonymous": false,
      "inputs": [
        {
          "indexed": true,
          "internalType": "address",
          "name": "owner",
          "type": "address"
        },
        {
          "indexed": true,
          "internalType": "address",
          "name": "approved",
          "type": "address"
        },
        {
          "indexed": true,
          "internalType": "uint256",
          "name": "tokenId",
          "type": "uint256"
        }
      ],
      "name": "Approval",
      "type": "event"
    },
    {
      "anonymous": false,
      "inputs": [
        {
          "indexed": true,
          "internalType": "address",
          "name": "owner",
          "type": "address"
        },
        {
          "indexed": true,
          "internalType": "address",
          "name": "operator",
          "type": "address"
        },
        {
          "indexed": false,
          "internalType": "bool",
          "name": "approved",
          "type": "bool"
        }
      ],
      "name": "ApprovalForAll",
      "type": "event"
    },
    {
      "anonymous": false,
      "inputs": [
        {
          "indexed": false,
          "internalType": "uint256",
          "name": "_fromTokenId",
          "type": "uint256"
        },
        {
          "indexed": false,
          "internalType": "uint256",
          "name": "_toTokenId",
          "type": "uint256"
        }
      ],
      "name": "BatchMetadataUpdate",
      "type": "event"
    },
    {
      "anonymous": false,
      "inputs": [
        {
          "indexed": false,
          "internalType": "uint256",
          "name": "_tokenId",
          "type": "uint256"
        }
      ],
      "name": "MetadataUpdate",
      "type": "event"
    },
    {
      "anonymous": false,
      "inputs": [
        {
          "indexed": false,
          "internalType": "string",
          "name": "tokenURI",
          "type": "string"
        }
      ],
      "name": "Minted",
      "type": "event"
    },
    {
      "anonymous": false,
      "inputs": [
        {
          "indexed": true,
          "internalType": "address",
          "name": "from",
          "type": "address"
        },
        {
          "indexed": true,
          "internalType": "address",
          "name": "to",
          "type": "address"
        },
        {
          "indexed": true,
          "internalType": "uint256",
          "name": "tokenId",
          "type": "uint256"
        }
      ],
      "name": "Transfer",
      "type": "event"
    },
    {
      "inputs": [
        {
          "internalType": "address",
          "name": "to",
          "type": "address"
        },
        {
          "internalType": "uint256",
          "name": "tokenId",
          "type": "uint256"
        }
      ],
      "name": "approve",
      "outputs": [],
      "stateMutability": "nonpayable",
      "type": "function"
    },
    {
      "inputs": [
        {
          "internalType": "address",
          "name": "owner",
          "type": "address"
        }
      ],
      "name": "balanceOf",
      "outputs": [
        {
          "internalType": "uint256",
          "name": "",
          "type": "uint256"
        }
      ],
      "stateMutability": "view",
      "type": "function"
    },
    {
      "inputs": [
        {
          "internalType": "string",
          "name": "imageURI",
          "type": "string"
        }
      ],
      "name": "formatTokenURI",
      "outputs": [
        {
          "internalType": "string",
          "name": "",
          "type": "string"
        }
      ],
      "stateMutability": "pure",
      "type": "function"
    },
    {
      "inputs": [
        {
          "internalType": "uint256",
          "name": "tokenId",
          "type": "uint256"
        }
      ],
      "name": "getApproved",
      "outputs": [
        {
          "internalType": "address",
          "name": "",
          "type": "address"
        }
      ],
      "stateMutability": "view",
      "type": "function"
    },
    {
      "inputs": [
        {
          "internalType": "address",
          "name": "owner",
          "type": "address"
        },
        {
          "internalType": "address",
          "name": "operator",
          "type": "address"
        }
      ],
      "name": "isApprovedForAll",
      "outputs": [
        {
          "internalType": "bool",
          "name": "",
          "type": "bool"
        }
      ],
      "stateMutability": "view",
      "type": "function"
    },
    {
      "inputs": [
        {
          "internalType": "string",
          "name": "svg",
          "type": "string"
        }
      ],
      "name": "mint",
      "outputs": [],
      "stateMutability": "nonpayable",
      "type": "function"
    },
    {
      "inputs": [],
      "name": "name",
      "outputs": [
        {
          "internalType": "string",
          "name": "",
          "type": "string"
        }
      ],
      "stateMutability": "view",
      "type": "function"
    },
    {
      "inputs": [
        {
          "internalType": "uint256",
          "name": "tokenId",
          "type": "uint256"
        }
      ],
      "name": "ownerOf",
      "outputs": [
        {
          "internalType": "address",
          "name": "",
          "type": "address"
        }
      ],
      "stateMutability": "view",
      "type": "function"
    },
    {
      "inputs": [
        {
          "internalType": "address",
          "name": "from",
          "type": "address"
        },
        {
          "internalType": "address",
          "name": "to",
          "type": "address"
        },
        {
          "internalType": "uint256",
          "name": "tokenId",
          "type": "uint256"
        }
      ],
      "name": "safeTransferFrom",
      "outputs": [],
      "stateMutability": "nonpayable",
      "type": "function"
    },
    {
      "inputs": [
        {
          "internalType": "address",
          "name": "from",
          "type": "address"
        },
        {
          "internalType": "address",
          "name": "to",
          "type": "address"
        },
        {
          "internalType": "uint256",
          "name": "tokenId",
          "type": "uint256"
        },
        {
          "internalType": "bytes",
          "name": "data",
          "type": "bytes"
        }
      ],
      "name": "safeTransferFrom",
      "outputs": [],
      "stateMutability": "nonpayable",
      "type": "function"
    },
    {
      "inputs": [
        {
          "internalType": "address",
          "name": "operator",
          "type": "address"
        },
        {
          "internalType": "bool",
          "name": "approved",
          "type": "bool"
        }
      ],
      "name": "setApprovalForAll",
      "outputs": [],
      "stateMutability": "nonpayable",
      "type": "function"
    },
    {
      "inputs": [
        {
          "internalType": "bytes4",
          "name": "interfaceId",
          "type": "bytes4"
        }
      ],
      "name": "supportsInterface",
      "outputs": [
        {
          "internalType": "bool",
          "name": "",
          "type": "bool"
        }
      ],
      "stateMutability": "view",
      "type": "function"
    },
    {
      "inputs": [
        {
          "internalType": "string",
          "name": "svg",
          "type": "string"
        }
      ],
      "name": "svgToImageURI",
      "outputs": [
        {
          "internalType": "string",
          "name": "",
          "type": "string"
        }
      ],
      "stateMutability": "pure",
      "type": "function"
    },
    {
      "inputs": [],
      "name": "symbol",
      "outputs": [
        {
          "internalType": "string",
          "name": "",
          "type": "string"
        }
      ],
      "stateMutability": "view",
      "type": "function"
    },
    {
      "inputs": [
        {
          "internalType": "uint256",
          "name": "tokenId",
          "type": "uint256"
        }
      ],
      "name": "tokenURI",
      "outputs": [
        {
          "internalType": "string",
          "name": "",
          "type": "string"
        }
      ],
      "stateMutability": "view",
      "type": "function"
    },
    {
      "inputs": [
        {
          "internalType": "address",
          "name": "from",
          "type": "address"
        },
        {
          "internalType": "address",
          "name": "to",
          "type": "address"
        },
        {
          "internalType": "uint256",
          "name": "tokenId",
          "type": "uint256"
        }
      ],
      "name": "transferFrom",
      "outputs": [],
      "stateMutability": "nonpayable",
      "type": "function"
    }
  ],
  "bytecode": "0x60806040523480156200001157600080fd5b506040518060400160405280600a81526020017f4e66744f6e636861696e000000000000000000000000000000000000000000008152506040518060400160405280600381526020017f4e4654000000000000000000000000000000000000000000000000000000000081525081600090816200008f919062000324565b508060019081620000a1919062000324565b5050506200040b565b600081519050919050565b7f4e487b7100000000000000000000000000000000000000000000000000000000600052604160045260246000fd5b7f4e487b7100000000000000000000000000000000000000000000000000000000600052602260045260246000fd5b600060028204905060018216806200012c57607f821691505b602082108103620001425762000141620000e4565b5b50919050565b60008190508160005260206000209050919050565b60006020601f8301049050919050565b600082821b905092915050565b600060088302620001ac7fffffffffffffffffffffffffffffffffffffffffffffffffffffffffffffffff826200016d565b620001b886836200016d565b95508019841693508086168417925050509392505050565b6000819050919050565b6000819050919050565b600062000205620001ff620001f984620001d0565b620001da565b620001d0565b9050919050565b6000819050919050565b6200022183620001e4565b6200023962000230826200020c565b8484546200017a565b825550505050565b600090565b6200025062000241565b6200025d81848462000216565b505050565b5b8181101562000285576200027960008262000246565b60018101905062000263565b5050565b601f821115620002d4576200029e8162000148565b620002a9846200015d565b81016020851015620002b9578190505b620002d1620002c8856200015d565b83018262000262565b50505b505050565b600082821c905092915050565b6000620002f960001984600802620002d9565b1980831691505092915050565b6000620003148383620002e6565b9150826002028217905092915050565b6200032f82620000aa565b67ffffffffffffffff8111156200034b576200034a620000b5565b5b62000357825462000113565b6200036482828562000289565b600060209050601f8311600181146200039c576000841562000387578287015190505b62000393858262000306565b86555062000403565b601f198416620003ac8662000148565b60005b82811015620003d657848901518255600182019150602085019450602081019050620003af565b86831015620003f65784890151620003f2601f891682620002e6565b8355505b6001600288020188555050505b505050505050565b61292d806200041b6000396000f3fe608060405234801561001057600080fd5b50600436106101005760003560e01c806370a0823111610097578063b88d4fde11610066578063b88d4fde146102d1578063c87b56dd146102ed578063d85d3d271461031d578063e985e9c51461033957610100565b806370a082311461023757806371aee1931461026757806395d89b4114610297578063a22cb465146102b557610100565b806323b872dd116100d357806323b872dd1461019f57806330d871c6146101bb57806342842e0e146101eb5780636352211e1461020757610100565b806301ffc9a71461010557806306fdde0314610135578063081812fc14610153578063095ea7b314610183575b600080fd5b61011f600480360381019061011a9190611b32565b610369565b60405161012c9190611b7a565b60405180910390f35b61013d6103ca565b60405161014a9190611c25565b60405180910390f35b61016d60048036038101906101689190611c7d565b61045c565b60405161017a9190611ceb565b60405180910390f35b61019d60048036038101906101989190611d32565b610478565b005b6101b960048036038101906101b49190611d72565b61048e565b005b6101d560048036038101906101d09190611efa565b610590565b6040516101e29190611c25565b60405180910390f35b61020560048036038101906102009190611d72565b610604565b005b610221600480360381019061021c9190611c7d565b610624565b60405161022e9190611ceb565b60405180910390f35b610251600480360381019061024c9190611f43565b610636565b60405161025e9190611f7f565b60405180910390f35b610281600480360381019061027c9190611efa565b6106f0565b60405161028e9190611c25565b60405180910390f35b61029f610740565b6040516102ac9190611c25565b60405180910390f35b6102cf60048036038101906102ca9190611fc6565b6107d2565b005b6102eb60048036038101906102e691906120a7565b6107e8565b005b61030760048036038101906103029190611c7d565b610805565b6040516103149190611c25565b60405180910390f35b61033760048036038101906103329190611efa565b610918565b005b610353600480360381019061034e919061212a565b61099e565b6040516103609190611b7a565b60405180910390f35b6000634906490660e01b7bffffffffffffffffffffffffffffffffffffffffffffffffffffffff1916827bffffffffffffffffffffffffffffffffffffffffffffffffffffffff191614806103c357506103c282610a32565b5b9050919050565b6060600080546103d990612199565b80601f016020809104026020016040519081016040528092919081815260200182805461040590612199565b80156104525780601f1061042757610100808354040283529160200191610452565b820191906000526020600020905b81548152906001019060200180831161043557829003601f168201915b5050505050905090565b600061046782610b14565b5061047182610b9c565b9050919050565b61048a8282610485610bd9565b610be1565b5050565b600073ffffffffffffffffffffffffffffffffffffffff168273ffffffffffffffffffffffffffffffffffffffff16036105005760006040517f64a0ae920000000000000000000000000000000000000000000000000000000081526004016104f79190611ceb565b60405180910390fd5b6000610514838361050f610bd9565b610bf3565b90508373ffffffffffffffffffffffffffffffffffffffff168173ffffffffffffffffffffffffffffffffffffffff161461058a578382826040517f64283d7b000000000000000000000000000000000000000000000000000000008152600401610581939291906121ca565b60405180910390fd5b50505050565b606060006040518060400160405280601a81526020017f646174613a696d6167652f7376672b786d6c3b6261736536342c000000000000815250905060006105d784610e0d565b905081816040516020016105ec92919061223d565b60405160208183030381529060405292505050919050565b61061f838383604051806020016040528060008152506107e8565b505050565b600061062f82610b14565b9050919050565b60008073ffffffffffffffffffffffffffffffffffffffff168273ffffffffffffffffffffffffffffffffffffffff16036106a95760006040517f89c62b640000000000000000000000000000000000000000000000000000000081526004016106a09190611ceb565b60405180910390fd5b600360008373ffffffffffffffffffffffffffffffffffffffff1673ffffffffffffffffffffffffffffffffffffffff168152602001908152602001600020549050919050565b606061071a826040516020016107069190612345565b604051602081830303815290604052610e0d565b60405160200161072a91906123be565b6040516020818303038152906040529050919050565b60606001805461074f90612199565b80601f016020809104026020016040519081016040528092919081815260200182805461077b90612199565b80156107c85780601f1061079d576101008083540402835291602001916107c8565b820191906000526020600020905b8154815290600101906020018083116107ab57829003601f168201915b5050505050905090565b6107e46107dd610bd9565b8383610f7f565b5050565b6107f384848461048e565b6107ff848484846110ee565b50505050565b606061081082610b14565b50600060066000848152602001908152602001600020805461083190612199565b80601f016020809104026020016040519081016040528092919081815260200182805461085d90612199565b80156108aa5780601f1061087f576101008083540402835291602001916108aa565b820191906000526020600020905b81548152906001019060200180831161088d57829003601f168201915b5050505050905060006108bb6112a5565b905060008151036108d0578192505050610913565b6000825111156109055780826040516020016108ed92919061223d565b60405160208183030381529060405292505050610913565b61090e846112bc565b925050505b919050565b600061092382610590565b90506000610930826106f0565b905061093e33600754611325565b61094a60075482611343565b6007600081548092919061095d9061240f565b91905055507f845020906442ad0651b44a75d9767153912bfa586416784cf8ead41b37b1dbf5816040516109919190611c25565b60405180910390a1505050565b6000600560008473ffffffffffffffffffffffffffffffffffffffff1673ffffffffffffffffffffffffffffffffffffffff16815260200190815260200160002060008373ffffffffffffffffffffffffffffffffffffffff1673ffffffffffffffffffffffffffffffffffffffff16815260200190815260200160002060009054906101000a900460ff16905092915050565b60007f80ac58cd000000000000000000000000000000000000000000000000000000007bffffffffffffffffffffffffffffffffffffffffffffffffffffffff1916827bffffffffffffffffffffffffffffffffffffffffffffffffffffffff19161480610afd57507f5b5e139f000000000000000000000000000000000000000000000000000000007bffffffffffffffffffffffffffffffffffffffffffffffffffffffff1916827bffffffffffffffffffffffffffffffffffffffffffffffffffffffff1916145b80610b0d5750610b0c8261139f565b5b9050919050565b600080610b2083611409565b9050600073ffffffffffffffffffffffffffffffffffffffff168173ffffffffffffffffffffffffffffffffffffffff1603610b9357826040517f7e273289000000000000000000000000000000000000000000000000000000008152600401610b8a9190611f7f565b60405180910390fd5b80915050919050565b60006004600083815260200190815260200160002060009054906101000a900473ffffffffffffffffffffffffffffffffffffffff169050919050565b600033905090565b610bee8383836001611446565b505050565b600080610bff84611409565b9050600073ffffffffffffffffffffffffffffffffffffffff168373ffffffffffffffffffffffffffffffffffffffff1614610c4157610c4081848661160b565b5b600073ffffffffffffffffffffffffffffffffffffffff168173ffffffffffffffffffffffffffffffffffffffff1614610cd257610c83600085600080611446565b6001600360008373ffffffffffffffffffffffffffffffffffffffff1673ffffffffffffffffffffffffffffffffffffffff168152602001908152602001600020600082825403925050819055505b600073ffffffffffffffffffffffffffffffffffffffff168573ffffffffffffffffffffffffffffffffffffffff1614610d55576001600360008773ffffffffffffffffffffffffffffffffffffffff1673ffffffffffffffffffffffffffffffffffffffff168152602001908152602001600020600082825401925050819055505b846002600086815260200190815260200160002060006101000a81548173ffffffffffffffffffffffffffffffffffffffff021916908373ffffffffffffffffffffffffffffffffffffffff160217905550838573ffffffffffffffffffffffffffffffffffffffff168273ffffffffffffffffffffffffffffffffffffffff167fddf252ad1be2c89b69c2b068fc378daa952ba7f163c4a11628f55a4df523b3ef60405160405180910390a4809150509392505050565b60606000825103610e2f57604051806020016040528060008152509050610f7a565b60006040518060600160405280604081526020016128b86040913990506000600360028551610e5e9190612457565b610e6891906124ba565b6004610e7491906124eb565b67ffffffffffffffff811115610e8d57610e8c611dcf565b5b6040519080825280601f01601f191660200182016040528015610ebf5781602001600182028036833780820191505090505b50905060018201602082018586518701602081018051600082525b82841015610f35576003840193508351603f8160121c168701518653600186019550603f81600c1c168701518653600186019550603f8160061c168701518653600186019550603f8116870151865360018601955050610eda565b80825260038a510660018114610f525760028114610f6557610f6d565b603d6001870353603d6002870353610f6d565b603d60018703535b5050505050505080925050505b919050565b600073ffffffffffffffffffffffffffffffffffffffff168273ffffffffffffffffffffffffffffffffffffffff1603610ff057816040517f5b08ba18000000000000000000000000000000000000000000000000000000008152600401610fe79190611ceb565b60405180910390fd5b80600560008573ffffffffffffffffffffffffffffffffffffffff1673ffffffffffffffffffffffffffffffffffffffff16815260200190815260200160002060008473ffffffffffffffffffffffffffffffffffffffff1673ffffffffffffffffffffffffffffffffffffffff16815260200190815260200160002060006101000a81548160ff0219169083151502179055508173ffffffffffffffffffffffffffffffffffffffff168373ffffffffffffffffffffffffffffffffffffffff167f17307eab39ab6107e8899845ad3d59bd9653f200f220920489ca2b5937696c31836040516110e19190611b7a565b60405180910390a3505050565b60008373ffffffffffffffffffffffffffffffffffffffff163b111561129f578273ffffffffffffffffffffffffffffffffffffffff1663150b7a02611132610bd9565b8685856040518563ffffffff1660e01b81526004016111549493929190612582565b6020604051808303816000875af192505050801561119057506040513d601f19601f8201168201806040525081019061118d91906125e3565b60015b611214573d80600081146111c0576040519150601f19603f3d011682016040523d82523d6000602084013e6111c5565b606091505b50600081510361120c57836040517f64a0ae920000000000000000000000000000000000000000000000000000000081526004016112039190611ceb565b60405180910390fd5b805181602001fd5b63150b7a0260e01b7bffffffffffffffffffffffffffffffffffffffffffffffffffffffff1916817bffffffffffffffffffffffffffffffffffffffffffffffffffffffff19161461129d57836040517f64a0ae920000000000000000000000000000000000000000000000000000000081526004016112949190611ceb565b60405180910390fd5b505b50505050565b606060405180602001604052806000815250905090565b60606112c782610b14565b5060006112d26112a5565b905060008151116112f2576040518060200160405280600081525061131d565b806112fc846116cf565b60405160200161130d92919061223d565b6040516020818303038152906040525b915050919050565b61133f82826040518060200160405280600081525061179d565b5050565b8060066000848152602001908152602001600020908161136391906127bc565b507ff8e1a15aba9398e019f0b49df1a4fde98ee17ae345cb5f6b5e2c27f5033e8ce7826040516113939190611f7f565b60405180910390a15050565b60007f01ffc9a7000000000000000000000000000000000000000000000000000000007bffffffffffffffffffffffffffffffffffffffffffffffffffffffff1916827bffffffffffffffffffffffffffffffffffffffffffffffffffffffff1916149050919050565b60006002600083815260200190815260200160002060009054906101000a900473ffffffffffffffffffffffffffffffffffffffff169050919050565b808061147f5750600073ffffffffffffffffffffffffffffffffffffffff168273ffffffffffffffffffffffffffffffffffffffff1614155b156115b357600061148f84610b14565b9050600073ffffffffffffffffffffffffffffffffffffffff168373ffffffffffffffffffffffffffffffffffffffff16141580156114fa57508273ffffffffffffffffffffffffffffffffffffffff168173ffffffffffffffffffffffffffffffffffffffff1614155b801561150d575061150b818461099e565b155b1561154f57826040517fa9fbf51f0000000000000000000000000000000000000000000000000000000081526004016115469190611ceb565b60405180910390fd5b81156115b157838573ffffffffffffffffffffffffffffffffffffffff168273ffffffffffffffffffffffffffffffffffffffff167f8c5be1e5ebec7d5bd14f71427d1e84f3dd0314c0f7b2291e5b200ac8c7c3b92560405160405180910390a45b505b836004600085815260200190815260200160002060006101000a81548173ffffffffffffffffffffffffffffffffffffffff021916908373ffffffffffffffffffffffffffffffffffffffff16021790555050505050565b6116168383836117b9565b6116ca57600073ffffffffffffffffffffffffffffffffffffffff168373ffffffffffffffffffffffffffffffffffffffff160361168b57806040517f7e2732890000000000000000000000000000000000000000000000000000000081526004016116829190611f7f565b60405180910390fd5b81816040517f177e802f0000000000000000000000000000000000000000000000000000000081526004016116c192919061288e565b60405180910390fd5b505050565b6060600060016116de8461187a565b01905060008167ffffffffffffffff8111156116fd576116fc611dcf565b5b6040519080825280601f01601f19166020018201604052801561172f5781602001600182028036833780820191505090505b509050600082602001820190505b600115611792578080600190039150507f3031323334353637383961626364656600000000000000000000000000000000600a86061a8153600a85816117865761178561248b565b5b0494506000850361173d575b819350505050919050565b6117a783836119cd565b6117b460008484846110ee565b505050565b60008073ffffffffffffffffffffffffffffffffffffffff168373ffffffffffffffffffffffffffffffffffffffff161415801561187157508273ffffffffffffffffffffffffffffffffffffffff168473ffffffffffffffffffffffffffffffffffffffff1614806118325750611831848461099e565b5b8061187057508273ffffffffffffffffffffffffffffffffffffffff1661185883610b9c565b73ffffffffffffffffffffffffffffffffffffffff16145b5b90509392505050565b600080600090507a184f03e93ff9f4daa797ed6e38ed64bf6a1f01000000000000000083106118d8577a184f03e93ff9f4daa797ed6e38ed64bf6a1f01000000000000000083816118ce576118cd61248b565b5b0492506040810190505b6d04ee2d6d415b85acef81000000008310611915576d04ee2d6d415b85acef8100000000838161190b5761190a61248b565b5b0492506020810190505b662386f26fc10000831061194457662386f26fc10000838161193a5761193961248b565b5b0492506010810190505b6305f5e100831061196d576305f5e10083816119635761196261248b565b5b0492506008810190505b61271083106119925761271083816119885761198761248b565b5b0492506004810190505b606483106119b557606483816119ab576119aa61248b565b5b0492506002810190505b600a83106119c4576001810190505b80915050919050565b600073ffffffffffffffffffffffffffffffffffffffff168273ffffffffffffffffffffffffffffffffffffffff1603611a3f5760006040517f64a0ae92000000000000000000000000000000000000000000000000000000008152600401611a369190611ceb565b60405180910390fd5b6000611a4d83836000610bf3565b9050600073ffffffffffffffffffffffffffffffffffffffff168173ffffffffffffffffffffffffffffffffffffffff1614611ac15760006040517f73c6ac6e000000000000000000000000000000000000000000000000000000008152600401611ab89190611ceb565b60405180910390fd5b505050565b6000604051905090565b600080fd5b600080fd5b60007fffffffff0000000000000000000000000000000000000000000000000000000082169050919050565b611b0f81611ada565b8114611b1a57600080fd5b50565b600081359050611b2c81611b06565b92915050565b600060208284031215611b4857611b47611ad0565b5b6000611b5684828501611b1d565b91505092915050565b60008115159050919050565b611b7481611b5f565b82525050565b6000602082019050611b8f6000830184611b6b565b92915050565b600081519050919050565b600082825260208201905092915050565b60005b83811015611bcf578082015181840152602081019050611bb4565b60008484015250505050565b6000601f19601f8301169050919050565b6000611bf782611b95565b611c018185611ba0565b9350611c11818560208601611bb1565b611c1a81611bdb565b840191505092915050565b60006020820190508181036000830152611c3f8184611bec565b905092915050565b6000819050919050565b611c5a81611c47565b8114611c6557600080fd5b50565b600081359050611c7781611c51565b92915050565b600060208284031215611c9357611c92611ad0565b5b6000611ca184828501611c68565b91505092915050565b600073ffffffffffffffffffffffffffffffffffffffff82169050919050565b6000611cd582611caa565b9050919050565b611ce581611cca565b82525050565b6000602082019050611d006000830184611cdc565b92915050565b611d0f81611cca565b8114611d1a57600080fd5b50565b600081359050611d2c81611d06565b92915050565b60008060408385031215611d4957611d48611ad0565b5b6000611d5785828601611d1d565b9250506020611d6885828601611c68565b9150509250929050565b600080600060608486031215611d8b57611d8a611ad0565b5b6000611d9986828701611d1d565b9350506020611daa86828701611d1d565b9250506040611dbb86828701611c68565b9150509250925092565b600080fd5b600080fd5b7f4e487b7100000000000000000000000000000000000000000000000000000000600052604160045260246000fd5b611e0782611bdb565b810181811067ffffffffffffffff82111715611e2657611e25611dcf565b5b80604052505050565b6000611e39611ac6565b9050611e458282611dfe565b919050565b600067ffffffffffffffff821115611e6557611e64611dcf565b5b611e6e82611bdb565b9050602081019050919050565b82818337600083830152505050565b6000611e9d611e9884611e4a565b611e2f565b905082815260208101848484011115611eb957611eb8611dca565b5b611ec4848285611e7b565b509392505050565b600082601f830112611ee157611ee0611dc5565b5b8135611ef1848260208601611e8a565b91505092915050565b600060208284031215611f1057611f0f611ad0565b5b600082013567ffffffffffffffff811115611f2e57611f2d611ad5565b5b611f3a84828501611ecc565b91505092915050565b600060208284031215611f5957611f58611ad0565b5b6000611f6784828501611d1d565b91505092915050565b611f7981611c47565b82525050565b6000602082019050611f946000830184611f70565b92915050565b611fa381611b5f565b8114611fae57600080fd5b50565b600081359050611fc081611f9a565b92915050565b60008060408385031215611fdd57611fdc611ad0565b5b6000611feb85828601611d1d565b9250506020611ffc85828601611fb1565b9150509250929050565b600067ffffffffffffffff82111561202157612020611dcf565b5b61202a82611bdb565b9050602081019050919050565b600061204a61204584612006565b611e2f565b90508281526020810184848401111561206657612065611dca565b5b612071848285611e7b565b509392505050565b600082601f83011261208e5761208d611dc5565b5b813561209e848260208601612037565b91505092915050565b600080600080608085870312156120c1576120c0611ad0565b5b60006120cf87828801611d1d565b94505060206120e087828801611d1d565b93505060406120f187828801611c68565b925050606085013567ffffffffffffffff81111561211257612111611ad5565b5b61211e87828801612079565b91505092959194509250565b6000806040838503121561214157612140611ad0565b5b600061214f85828601611d1d565b925050602061216085828601611d1d565b9150509250929050565b7f4e487b7100000000000000000000000000000000000000000000000000000000600052602260045260246000fd5b600060028204905060018216806121b157607f821691505b6020821081036121c4576121c361216a565b5b50919050565b60006060820190506121df6000830186611cdc565b6121ec6020830185611f70565b6121f96040830184611cdc565b949350505050565b600081905092915050565b600061221782611b95565b6122218185612201565b9350612231818560208601611bb1565b80840191505092915050565b6000612249828561220c565b9150612255828461220c565b91508190509392505050565b7f7b226e616d65223a20224e4654204f4e2d434841494e4544222c20226465736360008201527f72697074696f6e223a2022412073696d706c6520535647206261736564206f6e60208201527f2d636861696e204e4654222c2022696d616765223a2200000000000000000000604082015250565b60006122e3605683612201565b91506122ee82612261565b605682019050919050565b7f227d000000000000000000000000000000000000000000000000000000000000600082015250565b600061232f600283612201565b915061233a826122f9565b600282019050919050565b6000612350826122d6565b915061235c828461220c565b915061236782612322565b915081905092915050565b7f646174613a6170706c69636174696f6e2f6a736f6e3b6261736536342c000000600082015250565b60006123a8601d83612201565b91506123b382612372565b601d82019050919050565b60006123c98261239b565b91506123d5828461220c565b915081905092915050565b7f4e487b7100000000000000000000000000000000000000000000000000000000600052601160045260246000fd5b600061241a82611c47565b91507fffffffffffffffffffffffffffffffffffffffffffffffffffffffffffffffff820361244c5761244b6123e0565b5b600182019050919050565b600061246282611c47565b915061246d83611c47565b9250828201905080821115612485576124846123e0565b5b92915050565b7f4e487b7100000000000000000000000000000000000000000000000000000000600052601260045260246000fd5b60006124c582611c47565b91506124d083611c47565b9250826124e0576124df61248b565b5b828204905092915050565b60006124f682611c47565b915061250183611c47565b925082820261250f81611c47565b91508282048414831517612526576125256123e0565b5b5092915050565b600081519050919050565b600082825260208201905092915050565b60006125548261252d565b61255e8185612538565b935061256e818560208601611bb1565b61257781611bdb565b840191505092915050565b60006080820190506125976000830187611cdc565b6125a46020830186611cdc565b6125b16040830185611f70565b81810360608301526125c38184612549565b905095945050505050565b6000815190506125dd81611b06565b92915050565b6000602082840312156125f9576125f8611ad0565b5b6000612607848285016125ce565b91505092915050565b60008190508160005260206000209050919050565b60006020601f8301049050919050565b600082821b905092915050565b6000600883026126727fffffffffffffffffffffffffffffffffffffffffffffffffffffffffffffffff82612635565b61267c8683612635565b95508019841693508086168417925050509392505050565b6000819050919050565b60006126b96126b46126af84611c47565b612694565b611c47565b9050919050565b6000819050919050565b6126d38361269e565b6126e76126df826126c0565b848454612642565b825550505050565b600090565b6126fc6126ef565b6127078184846126ca565b505050565b5b8181101561272b576127206000826126f4565b60018101905061270d565b5050565b601f8211156127705761274181612610565b61274a84612625565b81016020851015612759578190505b61276d61276585612625565b83018261270c565b50505b505050565b600082821c905092915050565b600061279360001984600802612775565b1980831691505092915050565b60006127ac8383612782565b9150826002028217905092915050565b6127c582611b95565b67ffffffffffffffff8111156127de576127dd611dcf565b5b6127e88254612199565b6127f382828561272f565b600060209050601f8311600181146128265760008415612814578287015190505b61281e85826127a0565b865550612886565b601f19841661283486612610565b60005b8281101561285c57848901518255600182019150602085019450602081019050612837565b868310156128795784890151612875601f891682612782565b8355505b6001600288020188555050505b505050505050565b60006040820190506128a36000830185611cdc565b6128b06020830184611f70565b939250505056fe4142434445464748494a4b4c4d4e4f505152535455565758595a6162636465666768696a6b6c6d6e6f707172737475767778797a303132333435363738392b2fa264697066735822122036019050b5822c91b7bbb5963dffc9b8aea56e5d66bff1dca2e2857364d7edbf64736f6c63430008180033",
  "linkReferences": {},
  "deployedLinkReferences": {}
}